{
  "contractName": "Oracle",
  "abi": [
    {
      "inputs": [],
      "stateMutability": "nonpayable",
      "type": "constructor"
    },
    {
      "anonymous": false,
      "inputs": [],
      "name": "__callbackNewData",
      "type": "event"
    },
    {
      "inputs": [],
      "name": "numberAsteroids",
      "outputs": [
        {
          "internalType": "uint256",
          "name": "",
          "type": "uint256"
        }
      ],
      "stateMutability": "view",
      "type": "function"
    },
    {
      "inputs": [
        {
          "internalType": "uint256",
          "name": "num",
          "type": "uint256"
        }
      ],
      "name": "update",
      "outputs": [],
      "stateMutability": "nonpayable",
      "type": "function"
    }
  ],
  "bytecode": "0x608060405234801561001057600080fd5b50336000806101000a81548173ffffffffffffffffffffffffffffffffffffffff021916908373ffffffffffffffffffffffffffffffffffffffff160217905550610258806100606000396000f3fe608060405234801561001057600080fd5b50600436106100365760003560e01c8063829400cb1461003b57806382ab890a14610059575b600080fd5b610043610075565b604051610050919061012c565b60405180910390f35b610073600480360381019061006e9190610178565b61007b565b005b60015481565b60008054906101000a900473ffffffffffffffffffffffffffffffffffffffff1673ffffffffffffffffffffffffffffffffffffffff163373ffffffffffffffffffffffffffffffffffffffff1614610109576040517f08c379a000000000000000000000000000000000000000000000000000000000815260040161010090610202565b60405180910390fd5b8060018190555050565b6000819050919050565b61012681610113565b82525050565b6000602082019050610141600083018461011d565b92915050565b600080fd5b61015581610113565b811461016057600080fd5b50565b6000813590506101728161014c565b92915050565b60006020828403121561018e5761018d610147565b5b600061019c84828501610163565b91505092915050565b600082825260208201905092915050565b7f4f6e6c79206f776e657200000000000000000000000000000000000000000000600082015250565b60006101ec600a836101a5565b91506101f7826101b6565b602082019050919050565b6000602082019050818103600083015261021b816101df565b905091905056fea26469706673582212208784596d65715ddd06f54a295ea349ceeb074b690b2afcfcf59a750e46bb8efb64736f6c634300080a0033",
  "immutableReferences": {},
  "source": "// SPDX-Licencse-Identifier: MIT\npragma solidity ^0.8.0;\n\ncontract Oracle {\n    address owner;\n    uint256 public numberAsteroids;\n\n    event __callbackNewData();\n\n    constructor() public {\n        owner = msg.sender;\n    }\n\n    modifier onlyOwner() {\n        require(msg.sender == owner, \"Only owner\");\n        _;\n    }\n\n    function update(uint256 num) public onlyOwner {\n        numberAsteroids = num;\n    }\n}\n",
  "sourcePath": "/Users/tomonakar/practice/practice-truffle-react-dapps/03.oracle/contracts/Oracle.sol",
  "compiler": {
    "name": "solc",
    "version": "0.8.10+commit.fc410830.Emscripten.clang"
  },
  "schemaVersion": "3.4.3",
  "updatedAt": "2021-11-19T07:24:09.372Z",
  "devdoc": {
    "kind": "dev",
    "methods": {},
    "version": 1
  },
  "userdoc": {
    "kind": "user",
    "methods": {},
    "version": 1
  }
}